:0400000002006B325D
:01000B0032C2
:0100130032BA
:01001B0032B2
:0100230032AA
:01002B0032A2
:01003300329A
:01003B003292
:01004300328A
:01004B003282
:01005300327A
:01005B003272
:0300630002019FF8
:0300C400020066D1
:030066000200C7CE
:2000C70075900675E61075A88075ABFF120118908033E4F0A3F0A3F0908036F07582E2125E
:2000E7000863908033E4F0A3F0A3F0908036F07582E112086375ABFF75ACFF75AD087EE8F7
:110107007F03000000001EBEFF011FEE4F70F380E466
:0617400000780074AA000D
:2001180090800AE4F075A04090C7D6E04408F07E507FC3000000001EBEFF011FEE4F70F390
:2001380090C7D6E054F7F012014C90800AE060FA7582012290C7AE7411F090C7ACE4F090B1
:20015800C7AD7402F075B81090C7A9741FF090C7AAF090C7DE7402F090C7DFF090C7E0E420
:20017800F090C7E1F090C7817420F090C78223F090C7887410F090C78923F090C78A23F0CD
:2001980090C7C774FFF022C020C0E0C0F0C082C083C007C006C005C004C003C002C001C0D3
:2001B80000C0D075D00890C7A8E0FF600ABF10028016BF244D802275D0001203F075D00832
:2001D80090C7AB7401F0803A75D00012014C75D00890C7AB7410F0802990C640E0FF908051
:2001F800457441F074C6A3F0E4A3F08F8275D000120A2375D00890C7AA7402F090C7C774DE
:20021800FFF0D0D0D000D001D002D003D004D005D006D007D083D082D0F0D0E0D02032AFB5
:20023800F0AE83E58290800BF0EEA3F0EFA3F090800BE0FDA3E0FEA3E0FF8D828E838FF076
:200258001216B9AE82AF839080A9E4F09080AA7440F0E4A3F090C70275F000C007C0061284
:200278001676D006D0078E048F05EC2CFC0C0C90C700ECF090C7017403F090800BE0FBA350
:20029800E0FCA3E0FD79007A00C3E99EEA64808FF063F08095F0503BC006C0078900E82857
:2002B800F80808E83395E0FF881074C72FF511E92BF8EA3CFE8D0788828E838FF01216D130
:2002D800F8851082851183F009B900010AD007D00680B690C700E090C7B5F0229080B7E042
:2002F800FEA3E0FF74062EF582E43FF583E0FD90800EF08E828F83A3A3E0A3E0FE7F008EEB
:20031800038F04BB0105BC00028014BE0205BF0002804FBE0306BF00030203C60203EC90F2
:2003380016F1E493FFC39D500590800EEFF090800EE0FFFC7E009080A174F1F07416A3F0DC
:200358007480A3F09080A4ECF0EEA3F090C70075F000C007121602D00790C7B5EFF0758287
:200378000122901705E493FEA3E493FF7C00C3EE9DEF9C500590800EEEF090800EE0FFFD68
:200398007E009080A17403F07417A3F07480A3F09080A4EDF0EEA3F090C70075F000C00775
:2003B800121602D00790C7B5EFF07582012290C7EAE075F002A424B9F582748035F0F5830E
:2003D800E0FEA3E0FF7D808E828F838DF0120237758201227582002290800FE4F09080B7D1
:2003F800E0FEA3E0FF8E828F83A3E0FD606BBD05028025BD0602800DBD08028047BD090207
:20041800801F0204B41202F4E58270030204B490800F7401F00204B490800F7401F0020407
:20043800B48E828F83A3A3E0FCA3E0FD4C700790800AE4F0800690800A7401F090800F74E3
:2004580001F0805890800AE0FD90C700F090C7B57401F090800FF080438E828F83E0FEBE7C
:20047800822690C7ECE0FF5307807E00BF800EBE000B90C7B6E0FF90C700F0801490C7C648
:20049800E0FF90C700F0800990C700E4F090C701F090C7B57402F090800F14F090800FE08E
:1004B800600790C7B47402F02290C7B47401F022A8
:0617460000780074E8C702
:2016F10012010002FFFFFF4015190201010001020001090220000101008064090400000231
:20171100FFFFFF000705810240000007050102400000040900524653746F726D00526573B9
:0F1731006561726368204669726D776172650049
:06174C00231726172E17DB
:2004C800AFF0AE83E58290801BF0EEA3F0EFA3F090801BE0F521A3E0F522A3E0F523908059
:2004E8001AE0FC7A007B008C007900C3EA98EB648089F063F08095F0503C8C071F8A06EF62
:20050800C39EFF3395E0FEEF2414F524EE3480F525C004EA2521FCEB3522FDAF238C828D35
:20052800838FF01216D1852482852583F00ABA00010BD00480B1EC24FA50067E057F0080B9
:200548000488068907908012EEF0EFA3F09080117401F09080197420F0C29090803D7401A8
:20056800F0758202120950908012E0FEA3E0FF4E70119080287402F09080C375F0001207DF
:200588007E804CBE013BBF0038908014E090801EF0908014E0FD5305807C00BD8009BC009F
:2005A800067CAA7D0080047C557D0090801FECF09080287402F090801E75F00012077E8065
:2005C8000E908028EEF090801475F00012077E90802CE4F090802DF07582001207F790807B
:2005E80019E0FF90802F7408F0908030EFF0758203120824D29090C7B7E4F022AFF0AE83C3
:20060800E582908023F0EEA3F0EFA3F0908023E0F526A3E0F527A3E0F528908020E0FC7A52
:20062800007B008C007900C3EA98EB648089F063F08095F0503C8C071F8A06EFC39EFF33FD
:2006480095E0FEEF2414F529EE3480F52AC004EA2526FCEB3527FDAF288C828D838FF0125A
:2006680016D1852982852A83F00ABA00010BD00480B1EC24FA50067E057F00800488068967
:2006880007908012EEF0EFA3F09080117402F0908022E0908019F0C29090803D7401F0759E
:2006A8008202120950908012E0FEA3E0FF4E70119080287402F09080C375F00012077E8005
:2006C8004CBE013BBF0038908014E0908026F0908014E0FD5305807C00BD8009BC00067CD2
:2006E800AA7D0080047C557D00908027ECF09080287402F090802675F00012077E800E90F8
:200708008028EEF090801475F00012077E90802CE4F090802DF07582001207F7908021E0D6
:20072800FF6005BF01328018908019E0FF90802F7426F0908030EFF0758203120824802EED
:20074800908019E0FF90802F7406F0908030EFF07582031208248016908019E0FF90802FAC
:20076800740EF0908030EFF0758203120824D29090C7B7E4F022AFF0AE83E582908029F0E2
:20078800EEA3F0EFA3F090803D7401F0758202120950908028E0FFFE1E1E90803DEEF07547
:2007A8008203C007120950D007908029E0FCA3E0FDA3E0FE908033ECF0EDA3F0EEA3F090DD
:2007C8008036EFF0758230C007120863D007908029E0FCA3E0FDA3E0FE908033ECF0EDA375
:2007E800F0EEA3F0908036EFF075822A020863E58290802EF0E090803DF075821D1209509C
:2008080090802CE090803DF075821C12095090802DE090803DF0758201020950E5829080D5
:2008280031F0E090803DF075820012095090802FE090803DF0758206120950908030E0909C
:20084800803DF0758211020950E582908032F0E0F5E5C2C030C0FD85E58222E58290803702
:20086800F0C291908037E0F582120851908033E0FDA3E0FEA3E0FF908036E0FC7A007B00EA
:200888008C007900C3EA98EB648089F063F08095F05039C004EA2DF8EB3EF98F04888289C2
:2008A800838CF01216D1F582C007C006C005C004C003C002120851D002D003D004D005D09D
:2008C80006D0070ABA00010BD00480B4D29122E58290803CF0C29190803CE0F582120851D2
:2008E800908038E0FDA3E0FEA3E0FF90803BE0FC7A007B008C007900C3EA98EB648089F01A
:2009080063F08095F0503EC004EA2DF52BEB3EF52C8F2D7582FFC007C006C005C003C0021B
:20092800120851AC82D002D003D005D006D007852B82852C83852DF0EC12169E0ABA000170
:200948000BD00480AFD29122E58290803EF0E04420FF908033743DF07480A3F0E4A3F090A2
:20096800803604F08F82020863E58290803FF0E0FF9080387440F07480A3F0E4A3F09080C8
:200988003B04F08F821208D7908040E0F58222AF83E582908043F0EFA3F0908041E0FE7F49
:2009A80000908043E0FCA3E0FDEF6204EE6205908043ECF0EDA3F0908042E0FF8F061FEE54
:2009C800603D908043E0FDA3E0FE8D038E047B00530480BB0019BC8016ED2DFBEE33FC6392
:2009E8000321630410908043EBF0ECA3F080CDED2DFDEE33FE908043EDF0EEA3F080BD90A6
:200A08008043E0FEA3E0FF908043EEF0EFA3F0908043E0FEA3E08E82F58322E582908048DB
:200A2800F0E0FFBFFF0E9080BFE0F8A3E0F5838882020069BFFE699080497445F090804A7A
:200A4800746EF090804B7474F090804C7465F090804D7472F090804E7420F090804F744933
:200A6800F09080507443F09080517450F07D007E00C3ED9409EE648094805016EDF5F524D3
:200A880049F582EE3480F583E0F5F20DBD00E20E80DF9080C1E0F8A3E0F58388820200697B
:200AA800BF0B0C5394EF43801090C7B7E4F022BF0968C290908045E0FCA3E0FDA3E0FE8C6B
:200AC800828D838EF01216D190803DF0758205C006C005C004120950D004D005D00690C73C
:200AE800B77401F08C828D838EF01216D190C680F0908033E4F0A3F0A3F0908036F075820D
:200B0800E2120863908033E4F0A3F0A3F0908036F07582E1120863D29022BF0A1F908038F2
:200B28007480F074C6A3F0E4A3F090803B04F07582051208D790C7B77401F022BF062A9045
:200B48008045E0FCA3E0FDA3E0FE74012CF9E43DFA8E038C828D838EF01216D190801AF0F6
:200B680089828A838BF00204C8BF0D61908045E0FCA3E0FDA3E0FE74032CF52FE43DF530A0
:200B88008E318C828D838EF01216D1F52E74012CF8E43DFA8E0388828A838BF01216D1F80E
:200BA80074022CFCE43DFD8C828D838EF01216D1FC908020E52EF0908021E8F0908022EC86
:200BC800F0852F828530838531F0020604BF071790802F7490F0908030E4F07582021208C6
:200BE8002490C7B7E4F022BF120280030210BA9080387452F07480A3F0E4A3F090803B0458
:200C0800F07582171208D7908052E030E0030210AD908011E0FE707B9080387452F07480ED
:200C2800A3F0E4A3F090803B04F07582601208D7908052E0FD24DF403B9080387481F074BD
:200C4800C6A3F0E4A3F090803BEDF07582611208D790C680E4F0908052E0FD0D90C7B7ED5A
:200C6800F0908033E4F0A3F0A3F0908036F07582E202086390C7B77401F090C68074FFF017
:200C8800908033E4F0A3F0A3F0908036F07582E2020863BE01028003020FF57C007D0090C0
:200CA8008012E0FAA3E0FBC3EC9AED64808BF063F08095F050308A018C00E9C39814F8333B
:200CC80095E0F9E82457F52FE93480F530EC2414F582ED3480F583E0852F82853083F00C57
:200CE800BC00BC0D80B9EA2457FAEB3480FB7D00908019E0FC908038EAF0EBA3F0EDA3F093
:200D080090803BECF07582611208D77C007D00BC0174BD00717A1F7B00C3E49A74808BF03F
:200D280063F08095F0503AC004C005EA2457F8EB3480F98A051DED3395E0FCED2457F5822F
:200D4800EC3480F583E0035480FD88828983E0C313FCED420488828983ECF0D005D00480A9
:200D68001CC004C005EA2457F8EB3480F988828983E0C31388828983F0D005D0041ABAFF83
:200D8800011BEB30E793C004C00590805CE00303543FFB908019E07A0024F7F9EA34FFFA83
:200DA800908012E0F8A3E0FDE829F9ED3AFA8B2F753000C3E9952FEA64808530F063F08071
:200DC80095F0D005D0045003020FDFC004C00574062BF93395E0FAE92457F582EA3480F563
:200DE80083E0F97A0029CA790074072BF83395E0FDE82457F582ED3480F583E07C0025E012
:200E0800FDEC33FCED4201EC42028A328933908055E532F0E533A3F074082BFD3395E0FC7B
:200E2800ED2457F582EC3480F583E0D005D00430E70FA932AA33430201908055E9F0EAA33B
:200E4800F090805374FFF0A3F07406252FF9E43530FAE4F532F533C3E53299E53364808A0B
:200E6800F063F08095F0505AC004C005908053E0F8A3E0FDE5322457F582E5333480F583E7
:200E8800E0FC908041F09080427408F088828D83C005C004C003C002C001120997E58285E8
:200EA80083F0D001D002D003D004D005908053F0E5F0A3F00532E4B532020533D005D004F8
:200EC8008095C004C005908053E0F9A3E0FA74062BF83395E0FDE82457F582ED3480F5837E
:200EE800E0FD90804174805DF09080427401F089828A83C003120997AC82AD83D003EC8D8D
:200F080004FD908055E0F9A3E0FAECB50106EDB502028007D005D004020FDFD005D0049066
:200F280080A17457F07480A3F0E4A3F09080A47405F0E4A3F090C68075F000C00312160213
:200F4800D0037403252FF9E43530FAE4F532F533C3E53299E53364808AF063F08095F050EB
:200F68005CC001C002A832740528F93395E0FAE92480F52FEA34C6F530740628F93395E077
:200F8800FAE92457F582EA3480F583E025E0FA740728F83395E0F9E82457F582E93480F5D7
:200FA80083E02354014202852F82853083EAF00532E4B532020533D002D001809374052B2C
:200FC80090C7B7F0908033E4F0A3F0A3F0908036F07582E20208630CBC00010DC3EC940237
:200FE800ED648094805003020D170210ADBE020280030210AD7D007E00908012E0FBA3E04D
:20100800FCC3ED9BEE64808CF063F08095F0502C8B028D01EAC39914F93395E0FAE9247CC6
:20102800F9EA3480FAED2414F582EE3480F583E089828A83F00DBD00C00E80BDEB247CFB1E
:20104800EC3480FC7E00908019E0FD908038EBF0ECA3F0EEA3F090803BEDF07582611208AB
:20106800D7908019E0FE7D00908012E0FBA3E0FCEE2BFEED3CFD9080A1747CF07480A3F03C
:20108800E4A3F09080A4EEF0EDA3F090C68075F000121602908012E0FDA3E0908019E02DA2
:2010A80090C7B7F02290C7B77401F090C68074FFF022BF05028003021175908011E4F090E4
:2010C8008045E0FCA3E0FDA3E0FE8C828D838EF01216D124FA500B8C828D838EF074051231
:2010E800169E8C828D838EF01216D1FBBB0200500B8C828D838EF0740212169EC2907401ED
:201108002CF9E43DFA8E038C828D838EF01216D1908028F089828A838BF012077E90802CD3
:201128007401F090802DE4F07582061207F790802F7408F0908030E4F075820F120824D24F
:2011480090908033E4F0A3F0A3F0908036F07582E2120863908033E4F0A3F0A3F0908036AB
:20116800F07582E112086390C7B7E4F022BF080280030212AC908045E0FCA3E0FDA3E0FEE0
:201188008C828D838EF01216D124DF500B8C828D838EF0742012169E8C828D838EF012169A
:2011A800D1FBBB0100500B8C828D838EF0740112169EC290908033E4F0A3F0A3F090803698
:2011C800F07582E1C006C005C004120863D004D005D006908033E4F0A3F0A3F0908036F081
:2011E8007582E2C006C005C00412086390803D7470F075820712095090803D7401F075820F
:201208000112095090803D7406F075821D120950D004D005D00674012CF9E43DFA8E038CD3
:20122800828D838EF01216D1FC908033E9F0EAA3F0EBA3F0908036ECF07582A8120863D27A
:201248009090C680E4F07D007E008D038E04C3EB94F4EC9401503B758207C006C005120949
:2012680071AC82D005D0065304407B00BC400BBB000890C6807401F080187BE87C0300008B
:2012880000001BBBFF011CEB4C70F30DBD00BB0E80B890803DE4F075820112095090C7B75D
:2012A8007401F022BF04028003021440908045E0FCA3E0FDA3E0FE8C828D838EF01216D13A
:2012C80024DF500B8C828D838EF0742012169E8C828D838EF01216D1FBBB0100500B8C82FD
:2012E8008D838EF0740112169EC29074012CF9E43DFA8E0389828A838BF01216D1F989F087
:2013080005F07401800225E0D5F0FBF974022CF8E43DFA8E0388828A838BF01216D190803A
:201328003D49F0758204C006C005C004120950D004D005D006908033E4F0A3F0A3F09080AE
:2013480036F07582E1C006C005C004120863D004D005D006908033E4F0A3F0A3F0908036B9
:20136800F07582E2C006C005C00412086390803D7470F0758207120950758200120971E5DE
:201388008290803D54FEF075820012095090803D7401F0758201120950D004D005D00674CA
:2013A800032CF9E43DFA8E038C828D838EF01216D1FC908033E9F0EAA3F0EBA3F090803663
:2013C800ECF07582A0120863D2907D0A7E00000000001DBDFF011EED4E70F3C290C29175FE
:2013E800E5FFC2C030C0FDD291ADE55305107E00BD100ABE000790C680E4F08013ADE553F9
:2014080005207E00BD20D6BE00D390C6807401F090803DE4F075820112095075820012090C
:2014280071E58290803D4401F0758200120950D29090C7B77401F022BF0C02800122908071
:2014480045E0FDA3E0FEA3E0FF8D828E838FF01216D1FC74012DF52FE43EF5308F31852F4A
:20146800828530838531F01216D12CF80808EC24DF500B8D828E838FF0742012169E8D8285
:201488008E838FF01216D1FCBC0100500B8D828E838FF0740112169E852F828530838531A9
:2014A800F01216D124FA500E852F828530838531F0740512169E852F828530838531F01246
:2014C80016D1FCBC0100500E852F828530838531F0740112169EC290908033E4F0A3F0A318
:2014E800F0908036F07582E1C007C006C005C000120863D000D005D006D007908033E4F0EE
:20150800A3F0A3F0908036F07582E2C007C006C005C00012086390803D7470F075820712CE
:201528000950758200120971E58290803D54FEF0758200120950D000D005D006D007E82D08
:20154800F8E43EFB8F04852F828530838531F01216D1908028F088828B838CF0C007C00685
:20156800C00512077ED005D006D00774022DFAE43EFB8F048D828E838FF01216D1FD908093
:2015880033EAF0EBA3F0ECA3F0908036EDF07582A0120863D2907E0A7F00000000001EBEBD
:2015A800FF011FEE4F70F3C290C29175E5FFC2C030C0FDD291AEE55306207F00BE20EABF82
:2015C80000E790C6807401F0758200120971E58290803D4401F0758200120950908012E011
:1A15E800FEA3E0908028EEF090801475F00012077ED29090C7B77401F0223B
:0617520000780074AA00FB
:06009A00E478FFF6D8FD3A
:20160200AFF0AE83E5829080A6F0EEA3F0EFA3F09080A6E0F512A3E0F513A3E0F514AA1278
:20162200AB13AC149080A1E0F8A3E0F9A3E0FF9080A4E0F515A3E0F516AD15AE1615157453
:20164200FFB515021516ED4E6020888289838FF01216D1FEA3A882A9838A828B838CF0EECE
:1416620012169EA3AA82AB8380CF8512828513838514F02283
:20167600AC82AD839080AAE0FEA3E0FFBE000360121F0F9080A9E08C828D8312169EA3DE7D
:08169600FADFF88C828D83223B
:200078007918E94400601B7A0190174078AD75A080E493F2A308B8000205A0D9F4DAF27592
:02009800A0FFC7
:1B169E0020F71130F6138883A88220F509F6A8837583002280FEF280F5F0224B
:2000A0007800E84400600A790075A080E4F309D8FC78ADE84400600C7901908000E4F0A3B2
:0400C000D8FCD9FA95
:02006900E4733E
:1816B900AA82AB831216D16003A380F8C3E5829AF582E5839BF5832270
:0D006B007581331216EDE582600302006618
:1C16D10020F71430F6148883A88220F507E6A88375830022E280F7E49322E02228
:0416ED0075820022E0
:00000001FF
